:020000040800F2
:10000000D8040020AD010008CB100008CD0F000877
:10001000C9100008B9020008C1180008000000005B
:100020000000000000000000000000002D12000889
:10003000BB020008000000003D1100082F1200085C
:10004000C7010008C7010008C7010008C701000870
:10005000C7010008C7010008C7010008C701000860
:10006000C7010008C7010008C7010008C701000850
:10007000C7010008C7010008C7010008C701000840
:10008000C7010008C7010008C70100080000000000
:10009000000000000000000000000000C701000890
:1000A000C7010008C7010008C7010008C701000810
:1000B000C7010008C7010008C7010008C701000800
:1000C000C7010008C7010008C7010008C7010008F0
:1000D000C7010008C7010008C701000800000000B0
:1000E000C7010008C7010008C701000800000000A0
:1000F000000000000000000000000000C701000830
:1001000000000000C7010008C7010008C70100087F
:1001100000000000000000000000000000000000DF
:10012000C7010008C7010008C7010008C70100088F
:10013000C7010008000000000000000000000000EF
:10014000000000000000000000000000C7010008DF
:10015000C7010008C7010008C7010008C70100085F
:10016000C7010008C70100080000000000000000EF
:10017000000000000000000000000000000000007F
:1001800000000000C701000800000000000000009F
:10019000C7010008C7010008DFF80CD000F07AF8AA
:1001A0000048004701190008D8040020064880478D
:1001B00006480047FEE7FEE7FEE7FEE7FEE7FEE74C
:1001C000FEE7FEE7FEE7FEE7B5120008990100082A
:1001D0002DE9F05F0546002092469B46884606467C
:1001E000814640241BE0284641464746224600F00F
:1001F00041F853465A46C01A914110D31146184649
:10020000224600F028F82D1A67EB01084F462246D7
:100210000120002100F01FF817EB00094E41201EBD
:10022000A4F10104DFDC484631462A464346BDE8D6
:10023000F09FD2B201E000F8012B491EFBD27047BB
:100240000022F6E710B513460A4604461946FFF7A2
:10025000F0FF204610BD202A04DB203A00FA02F10C
:10026000002070479140C2F1200320FA03F31943A4
:1002700090407047202A04DB203A21FA02F0002146
:10028000704721FA02F3D040C2F1200291400843A6
:1002900019467047064C074D06E0E06840F0010340
:1002A00094E8070098471034AC42F6D3FFF778FF84
:1002B000BC190008DC190008FEE770472DE9F84F6B
:1002C00000224FF0010803254FF00F0E0B6808FACB
:1002D00002F42340A34271D14E68012E05D0022EB4
:1002E00003D0112E01D0122E15D18668570005FAC1
:1002F00007FC26EA0C06D1F80CC00CFA07FC4CEA05
:10030000060CC0F808C04668A6430C79C4F3001474
:10031000944034434460C668570005FA07FC8C6873
:1003200026EA0C06BC403443C4604C68022C01D061
:10033000122C13D1D40800EB8404A346D4F82090E7
:1003400054074FEAD46A0EFA0AF629EA06090E693A
:1003500006FA0AF646EA0906CBF8206004680E7928
:1003600024EA0C0406F00306BE40264306604C68EF
:10037000E40056D52E4C266846F480462660246854
:1003800022F0030604F4804400942A4C3444A4462A
:10039000D4F808489607370F0EFA07F6B443264EEE
:1003A000B04201D1002615E0244EB04201D1012611
:1003B00010E0234EB04202D102260BE031E0214E84
:1003C000B04201D1032605E01F4EB04201D1042600
:1003D00000E00726BE402643CCF808681B4E346870
:1003E0004F689C43FF0300D51C433460174E361DF5
:1003F00034684F689C43BF0300D51C433460134EE0
:10040000083634684F689C43FF0200D51C433460B3
:100410000E4E0C3634684F689C43BF0200D51C4317
:100420003460521C102AFFF451AFBDE8F88F000071
:100430004438024000300140000002400004024005
:1004400000080240000C024000100240003C014045
:100450000AB1816170470904FBE700000148806828
:100460007047000030000020024881680278114483
:1004700081607047300000200B4810B5016841F4DE
:1004800000710160016841F480610160016841F41C
:1004900080710160032000F063F8002000F006F88E
:1004A00000F024F8002010BD003C024070B50D4D56
:1004B00004464FF47A712878B1FBF0F00A490968D4
:1004C000B1FBF0F000F009FD48B9102C07D2002272
:1004D0002146501E00F024F800206C6070BD012001
:1004E00070BD0000300000203C0000200B4882B0AE
:1004F000016841F480410160006800F48040009090
:100500000648001F016841F080510160006800F05A
:1005100080500090072002B000F022B8443802401A
:10052000F0B40E4B1B680C46C3F30223C3F107055E
:10053000042D00D90425191D072901D2002300E04C
:10054000DB1E012606FA05F1491E214099409E4016
:10055000761E16403143F0BC01F0B3B90CED00E05B
:10056000064900F0070208684FF6FF03184040EA0A
:100570000220034A10430860704700000CED00E0C1
:100580000000FA052DE9F0470E46050065D0DFF8BA
:100590001481D8F80000F7B200F00F00B04207D283
:1005A00088F80070D8F8000000F00F00B04254D175
:1005B00028683D4C810712D5400703D5206840F4D8
:1005C000E05020602878000703D5206840F46040A0
:1005D00020602068A96820F0F00008432060287897
:1005E000C0072DD0304968680839012812D0022888
:1005F00013D0032811D00968890700292DDA216852
:1006000021F0030101432160FFF728FF814641F2F9
:10061000883A0EE009688903EFE709688901ECE789
:10062000FFF71CFFA0EB0901514502D90320BDE8EB
:10063000F0872068696800F00C00B0EB810FEFD103
:10064000D8F80010404601F00F01B14207D90770F9
:10065000006800F00F00B04201D00120E7E72878E1
:10066000400705D52068E96820F4E0500843206081
:100670002878000706D52068296920F4604040EA00
:10068000C100206000F038F82168084AC1F3031166
:10069000515CC8400649086006480068FFF706FF3D
:1006A0000020C4E7003C024008380240A4190008BA
:1006B0003C00002034000020044805490068096817
:1006C000044AC1F38221515CC84070473C000020BD
:1006D00008380240B4190008044805490068096850
:1006E000044AC1F34231515CC84070473C000020CD
:1006F00008380240B4190008154810B5006810F019
:100700000C02144813D04110042A0FD0082A0ED12D
:100710000F4C241F2268236802F03F025B0207D5BA
:100720002068C0F38810A0FB010106E0084610BD58
:100730002168C1F38811A1FB00010023FFF748FDE8
:100740002168C1F30141491C4900B0FBF1F010BD23
:10075000083802400024F4002DE9F84F040076D058
:100760002078DFF838A3CE4DC00749D0DAF8001062
:100770005046C1F38101012908D00068C0F381000F
:1007800002280AD1281D0068400206D52868800387
:1007900036D560680028E2D032E06068B0F5803F6E
:1007A00010D0B0F5A02F286810D020F48030286039
:1007B000286820F4802028606068A0B1FFF74EFE12
:1007C00006460CE0286840F48030F4E740F48020CE
:1007D0002860F7E7FFF742FE801B642873D828687B
:1007E0008003F7D50CE0FFF739FE064605E000BFB1
:1007F000FFF734FE801B6428F0D828688003F7D404
:100800002078DFF8A08280074FF000093ED5DAF8A3
:100810000010504611F00C0F09D00068C0F38100A1
:1008200002280BD19D48001F0068400206D42868AA
:10083000800715D5E068012809D111E0E068B8B15A
:100840000120C8F80000FFF709FE064605E020E198
:10085000FFF704FE801B0228C0D828688007F7D560
:100860002868216920F0F80040EAC10028600DE006
:10087000C8F80090FFF7F2FD064604E0FFF7EEFD32
:10088000801B02281FD828688007F7D4207800072B
:1008900022D5824E844861696C3671B101210160B4
:1008A000FFF7DCFD074604E0FFF7D8FDC01B022878
:1008B00009D830688007F7D50EE0C0F80090FFF740
:1008C000CDFD074605E082E0FFF7C8FDC01B02280A
:1008D0007DD830688007F7D42078400768D5DFF8E6
:1008E000BCB100270BF1380BDBF80000C0000BD4C3
:1008F000DBF8001041F08051CBF80010DBF800006D
:10090000012700F080500090684E3068C00510D478
:10091000306840F480703060FFF7A0FD009005E083
:10092000FFF79CFD0099401A022850D83068C00596
:10093000F6D55A4EA068683601280FD005283068D1
:1009400010D020F001003060306820F004003060EA
:10095000A068B8B1FFF782FD00900FE0306840F06A
:100960000100F4E740F004003060F7E7FFF776FDA0
:100970000099411A41F28830814266D83068800778
:10098000F4D50EE0FFF76AFD009007E0FFF766FD83
:100990000099411A41F28830814256D83068800768
:1009A000F4D42FB1DBF8001021F08051CBF8001007
:1009B000A069D0B3DAF800205146C2F38102022ABE
:1009C0004AD00228484607D0C8F8600000E03CE062
:1009D000FFF744FD04463BE04746C8F86000FFF7D8
:1009E0003DFD064605E000BFFFF738FD801B0228ED
:1009F0002BD828688001F7D4D4E907010843A16AFD
:100A00002B4A490802EB0141626A41EA821108431C
:100A100094F82C1040EA01612048001F0160012079
:100A20003866FFF71BFD044605E034E0FFF716FDCE
:100A3000001B022809D828688001F7D52BE000BFE9
:100A4000FFF70CFD001B022802D90320BDE8F88F38
:100A500028688001F4D41EE00128F7D00868E26914
:100A600000F48001914214D1226A00F03F019142CA
:100A70000FD147F6C071626A0140914209D1A26A62
:100A800000F44031914204D1E16A00F07060884284
:100A900001D00120DAE70020D8E700000838024042
:100AA0000038024000004742800E4742007000407C
:100AB0000000FFFF70B5040005D00025A56294F882
:100AC000510010B106E0012070BD84F8505020465E
:100AD00000F030F8022084F851002068016821F00D
:100AE00040010160D4E901010843D4E90312114334
:100AF000084361690843218B01F400710843E169EF
:100B00000843216A0843A16A084321680860A06974
:100B1000042101EA1040616A0843216848602068A6
:100B2000C16921F40061C1616565012084F851004B
:100B3000002070BD10B586B0044614216846FFF74A
:100B40007FFB13492068884220D1124800210268A7
:100B500042F480520260006800F4805005900D4815
:100B60001438026842F001020260006800F00100DF
:100B70000590E02000900220CDE9010103200390C0
:100B80000520049069460448FFF798FB06B010BDA5
:100B90000030014044380240000002402DE9F84F87
:100BA000044690F8500000271D4616468946012845
:100BB0000DD04FF0010B84F850B0FFF74FFC80468A
:100BC00094F85100BA46012804D002278EE0022092
:100BD000BDE8F88FB9F1000F7DD0002E7BD0032047
:100BE00084F85100C4F854A0C4F83090A686E68674
:100BF000C4F838A0A4F83CA0A4F83EA0C4F844A0CF
:100C0000C4F840A0A068B0F5004F04D12068016886
:100C100041F48041016020680168490603D40168FD
:100C200041F040010160E068B0F5006F606803D0FA
:100C300030B3012E24D040E008B1012E1CD1206B2E
:100C400021680088C86006E020688168890709D5A6
:100C5000216B0988C160206B801C2063E08E401EE0
:100C6000E08609E0FFF7FAFBA0EB0800A84202D3F8
:100C7000681C01D031E07DB3E08E0028E4D11FE094
:100C8000206B21680078087306E020688168890776
:100C900009D5216B09780173206B401C2063E08E1D
:100CA000401EE08609E0FFF7D9FBA0EB0800A84250
:100CB00002D3681C01D010E075B1E08E0028E4D1A9
:100CC00042462946204600F03BFA08B120206065E4
:100CD000A06820B107E008E0FFE7032706E02068EE
:100CE000C16880680090606D00B1012784F851B040
:100CF00084F850A038466BE72DE9F84F044690F889
:100D0000500000270A9E1D4692468B464FF001096F
:100D100001280ED0012084F85000FFF79FFB804689
:100D200094F85100616801280CD0B1F5827F07D199
:100D300002E00220BDE8F88FA16809B9042801D0BB
:100D40000227C2E0BBF1000F27D0BAF1000F24D078
:100D50001DB394F85100042802D0052084F85100F6
:100D600000206065C4F838A0E587A587C4F830B0D6
:100D7000E586A5862064606420680168490603D47E
:100D8000016841F040010160E068B0F5006F606803
:100D900005D0E8B3012D46D07FE0012795E008B1EA
:100DA000012D39D1206B21680088C860206B801C20
:100DB0002063E08E401EE0862EE02068816889076F
:100DC0000FD5E18E69B1B9F1010F0AD1216B098804
:100DD000C160206B801C2063E08E401EE0864FF0D7
:100DE000000920688168C9070CD0E18F51B1C06843
:100DF000A16B0880A06B801CA063E08F401EE08781
:100E00004FF00109FFF72AFBA0EB0800B04200E019
:100E100009E001D3701C50D1E08E0028CDD1E08FC5
:100E20000028CAD13FE0206B216800780873206B4E
:100E3000401C2063E08E401EE0862EE02068816822
:100E400089070FD5E18E69B1B9F1010F0AD1216B84
:100E500009780173206B401C2063E08E401EE08601
:100E60004FF0000920688168C9070CD0E18F51B1AB
:100E7000C068A16B0870A06B401CA063E08F401E8F
:100E8000E0874FF00109FFF7E9FAA0EB0800B04254
:100E900002D3701C01D010E07EB1E08E0028CDD1CD
:100EA000E08F0028CAD142463146204600F048F97A
:100EB00028B101272020606507E0032705E0A0682E
:100EC00018B92068C16880680090012084F851003A
:100ED000002084F8500038462CE710B5401EB0F1D1
:100EE000807F01D3012010BD4FF0E02460610F210D
:100EF000601700F0E6FC0020A061072020610020C0
:100F000010BD70B5040004D094F83900002510B16C
:100F100006E0012070BD84F83850204600F022F829
:100F2000242084F839002068C16821F40051C16090
:100F3000204600F031FC2068016921F490410161F4
:100F40002068416921F02A0141612068C16841F4AB
:100F50000051C160E563202084F8390084F83A002C
:100F6000002070BD10B586B0044614216846FFF716
:100F700067F913492068884220D11248016841F47A
:100F800000310160006800F4003005900D48103811
:100F9000016841F0010101600068694600F001004C
:100FA00005900C2000900220019001200290032067
:100FB0000390072004900448FFF780F906B010BDA5
:100FC000004400404038024000000240FEE70000BC
:100FD0002DE9F04186B014216846FFF731F9274822
:100FE0000024016841F004010160016801F004017E
:100FF0000591016841F080010160016801F0800104
:101000000591016841F001010160016801F00101F1
:101010000591016841F0020101600068184F00F07D
:1010200002004FF480650590002229463846FFF7FC
:101030000FFA0122DFF84C80160231464046FFF7D6
:1010400007FAE80000901048CDE9010469460F480E
:10105000FFF734F900950125CDE90154694638467A
:101060000394FFF72BF90096CDE9015469464046F9
:101070000394FFF723F906B0BDE8F0813038024051
:10108000000402400000024000002110000802405D
:101090000C480B494FF4007201604FF482714160BB
:1010A00000218160C1600161C0E905122022C0E910
:1010B0000721416281620A21C162FFF7FBBC000087
:1010C0000030014040000020FEE77047F8B50546BB
:1010D000E2200B4E8DF800004FF480740022214670
:1010E0003046FFF7B5F9C823012269462846FFF7C5
:1010F00055FD012221463046FFF7AAF9F8BD000050
:1011000000000240F8B50546E1200B4E8DF80000C6
:101110004FF48074002221463046FFF799F9C82326
:10112000012269462846FFF739FD01222146304653
:10113000FFF78EF9F8BD0000000002407047000084
:1011400038B504461248134B0068B0FBF3F04FF477
:101150007A73584300906068B0F5827F0DD10B46DA
:10116000009200228021204600F016F870B1606DD8
:1011700040F020006065032038BD009830B1401E6B
:10118000009020688068C0430006F6D5002038BD76
:101190003C00002000366E012DE9F0411D46174647
:1011A0000E460446DDF8188008E0681C06D0FFF7FC
:1011B00055F9A0EB0800A8420BD255B12068806811
:1011C00036EA000030D00020B842EED10020BDE861
:1011D000F0812068416821F0E00141606068B0F56D
:1011E000827F0BD1A068B0F5004F02D0B0F5806FC0
:1011F00004D12068016821F040010160A06AB0F5C7
:10120000005F09D12068016821F400510160206865
:10121000016841F400510160012084F85100002070
:1012200084F850000320D2E70120CDE77047FFF794
:101230001BB9000030B593B030216846FFF700F8C5
:1012400014210CA8FEF7FCFF18480024016841F0A7
:1012500080510160006800F08050119014480168CE
:1012600041F4404101600068022500F440401190C3
:10127000012003901020009506950490CDE90740C9
:101280004FF4A870099004200A900B906846FFF76D
:1012900063FA0F20CDE90C05E802CDE90E400221EA
:1012A0000CA81094FFF76EF913B030BD403802401F
:1012B000007000400548016841F470010160034975
:1012C0004FF00060803908607047000088ED00E052
:1012D0007022072100F0F4B92DE9FC41134E0C46B1
:1012E00007464FF48075002229463046FFF7B0F8D4
:1012F00061208DF80400C823012201A93846FFF7B8
:101300004DFCC82000900A48224611460378384612
:10131000FFF7F2FC012229463046FFF799F84022F8
:101320000721384600F0CCF9BDE8FC8100000240FE
:101330002A0000202DE9F04115460E46074600F030
:1013400063F8202D00D92025002E59D000202D4CE7
:10135000607025700320A0700020E070384600F017
:1013600007F93146384600F0A7F8227811213846AF
:1013700000F0A6F922781221384600F0A1F922786F
:101380001321384600F09CF922781421384600F0E9
:1013900097F922781521384600F092F92278162123
:1013A000384600F08DF9A278E178384600F0AEF8C2
:1013B00008220021384600F083F93F2201213846F7
:1013C00000F07EF93F220221384600F079F94F22E1
:1013D0000421384600F074F900221C21384600F040
:1013E0006FF93846FFF78EFE3846FFF76FFE384636
:1013F000FFF76EFF384600F017F80120BDE8F081D6
:101400000120A4E72A00002010B5064C0122110299
:101410002046FFF71DF8002221152046BDE81040A8
:10142000FFF716B80000024070B50D4D06464FF4A8
:101430008064002221462846FFF70AF83046FFF76D
:1014400045FE3046FFF744FF0B220021304600F0F6
:1014500037F921462846BDE870400122FEF7F8BF63
:1014600000000240FEB5134E0C4607464FF480754F
:10147000002229463046FEF7EBFF04F01F008DF8EE
:101480000400C823012201A93846FFF787FBFF208B
:101490008DF80400C8200090012302AA01A9384653
:1014A000FFF72AFC012229463046FEF7D1FF9DF8BE
:1014B0000800FEBD000002407D2908D8044A537888
:1014C0008B4204D051700A46052100F0F9B87047EC
:1014D0002A0000202DE9F0410B4E0C4607464FF440
:1014E0008065002229463046FEF7B2FF05232246DA
:1014F0000B21384600F00CF929463046BDE8F04192
:101500000122FEF7A5BF00000000024030B40F4CDE
:1015100013460022E170A37011B1022902D002E04B
:10152000082200E02022032B04D0022B05D0012B3F
:1015300006D007E042F0060204E042F0040201E0B7
:1015400042F0020230BC062100F0BAB82A000020A6
:1015500070B50C460A46054605230A2100F0D8F866
:1015600022462846BDE870400523102100F0D0B87F
:101570007CB505460822002100F0A2F83F22012197
:10158000284600F09DF803220221284600F098F832
:1015900003221146284600F093F80322042128462E
:1015A00000F08EF805221146284600F089F80E2238
:1015B0000621284600F084F80E220721284600F074
:1015C0007FF800220821284600F07AF8002209213D
:1015D000284600F075F8E7248DF800408DF80140AA
:1015E0008DF802408DF803408DF8044005236A46CB
:1015F0000A21284600F08CF8C2218DF800108DF8E1
:1016000001108DF802108DF803108DF804100523D9
:101610006A460B21284600F07BF8C3220C2128469D
:1016200000F04EF8C4220D21284600F049F8C522EA
:101630000E21284600F044F8C6220F21284600F06B
:101640003FF88DF800408DF801408DF802408DF88C
:1016500003408DF8044005236A461021284600F017
:1016600057F800221121284600F02AF80022122102
:10167000284600F025F800221321284600F020F823
:1016800000221421284600F01BF8002215212846CC
:1016900000F016F800221621284600F011F8112259
:1016A0001721284600F00CF800221C21284600F0E3
:1016B00007F800221D21284600F002F87CBD00003A
:1016C000F7B5124E0C4607464FF4807582B00022E3
:1016D00029463046FEF7BCFE04F01F0040F0200013
:1016E0008DF80000C823012269463846FFF756FAF4
:1016F000C823012204A93846FFF750FA01222946DF
:101700003046FEF7A5FE05B0F0BD00000000024027
:101710002DE9F843124E91460C4607464FF480756A
:101720009846002229463046FEF792FE04F01F003C
:1017300040F020008DF80000C82301226946384699
:10174000FFF72CFAC823424649463846FFF726FAE7
:10175000012229463046FEF77BFEBDE8F8830000F3
:101760000000024000220121FFF7AABF70B50C461D
:1017700005460021FFF776FE20F003022CB1082C6D
:1017800001D0102C07D142F003022846BDE870407A
:101790000021FFF795BF70BD2DE9F04104460068B8
:1017A0000169E26821F44051114301612169A06897
:1017B000E26908436169114308432168CA6849F234
:1017C0000C639A430243CA6020684169A26921F40C
:1017D000407111434161E069192764253226B0F553
:1017E000004F354A354920684FF0000806D088423E
:1017F00001D0904236D1FEF76FFF35E0884201D02C
:10180000904202D1FEF768FF01E0FEF755FF6168E4
:101810004A18A0FB070148EB0803FEF7D9FC014674
:10182000B0FBF5F00201B1FBF5F06FF0180358437F
:1018300001EB800006EBC000B0FBF5F000F0F80013
:1018400002EB4002B1FBF5F0584301EB800006EBE0
:10185000C000B0FBF5F000F007002168104488607C
:10186000BDE8F081FEF728FF61688B0F8A00A0FBBE
:101870000701FEF7ADFC0146B0FBF5F06FF0180272
:10188000504301EB800006EB0010B0FBF5F000F0D8
:10189000F002B1FBF5F002EB0012B1FBF5F06FF0D6
:1018A0001803584301EB800006EB0010B0FBF5F085
:1018B00000F00F00D1E700000014014000100140CB
:1018C000FEE70907090E002804DB00F1E02080F89C
:1018D0000014704700F00F0000F1E02080F8141DA4
:1018E000704702E008C8121F08C1002AFAD17047E9
:1018F0007047002001E001C1121F002AFBD1704790
:10190000FEF7BAFDFFF796FCFFF762FBFFF7C0FB9F
:10191000224821490C2201604FF4E131416000214D
:101920008160C160C0E904128161C161FFF7E9FA19
:101930001A485838FFF71CFE184820223221583820
:10194000FFF7F8FC154808215838FFF70FFF134838
:101950005838FFF707FF114811495838FFF7BAFD0B
:101960000F490E48491F5838FFF7F2FD0B48322146
:101970005838FFF7A1FD0948002211465838FFF7F3
:10198000C5FD06485838FFF74FFD05490348491D76
:101990005838FFF7A1FCF8E7004400409800002009
:1019A0000500002000000000000000000102030408
:1019B000060708090000000001020304DC19000802
:1019C0000000002040000000E21800081C1A000877
:1019D0004000002098040000F2180008E7E7E7E75D
:1019E000E77E7E7E7E7E63630000000000000000D4
:1019F00000000000000000000000000000000000E7
:101A000000000000000000000000000001000000D5
:0C1A100010000000000000000024F400A2
:040000050800019955
:00000001FF
