:020000040800F2
:10000000900700200D02000855330008072700085C
:10001000F5320008C70700085D3E00080000000038
:10002000000000000000000000000000353500085E
:10003000C907000800000000C13300083735000878
:1000400027020008270200082702000827020008EC
:1000500027020008270200082702000827020008DC
:1000600027020008270200082702000827020008CC
:1000700027020008270200082702000827020008BC
:1000800027020008270200082702000827020008AC
:10009000270200082702000827020008270200089C
:1000A000270200082D360008270200082702000852
:1000B000270200082702000827020008270200087C
:1000C0002702000815270008092700082702000852
:1000D000270200082702000827020008270200085C
:1000E000270200082702000827020008270200084C
:1000F000270200082702000827020008270200083C
:10010000270200082702000827020008270200082B
:10011000270200082702000827020008270200081B
:10012000270200082702000827020008270200080B
:1001300027020008270200082702000827020008FB
:1001400027020008270200082702000827020008EB
:1001500027020008270200082702000827020008DB
:1001600027020008270200082702000827020008CB
:1001700027020008270200082702000800000000EC
:1001800027020008270200082702000827020008AB
:10019000270200082702000827020008270200089B
:1001A000270200082702000827020008270200088B
:1001B000270200082702000827020008270200087B
:1001C000270200082702000800000000270200089C
:1001D000270200082702000827020008270200085B
:1001E000270200082702000827020008270200084B
:1001F0002702000827020008DFF80CD000F062FA9E
:1002000000480047D1470008900700200648804773
:1002100006480047FEE7FEE7FEE7FEE7FEE7FEE7EB
:10022000FEE7FEE7FEE7FEE7D9350008F901000822
:100230002DE9F05F0546002092469B46884606461B
:10024000814640241BE0284641464746224600F0AE
:1002500070F853465A46C01A914110D311461846B9
:10026000224600F057F82D1A67EB01084F46224648
:100270000120002100F04EF817EB00094E41201E2E
:10028000A4F10104DFDC484631462A464346BDE876
:10029000F09F40EA01039B0703D009E008C9121F41
:1002A00008C0042AFAD203E011F8013B00F8013B30
:1002B000521EF9D27047D2B201E000F8012B491E5C
:1002C000FBD270470022F6E710B513460A460446F3
:1002D0001946FFF7F0FF204610BD421C10F8011B25
:1002E0000029FBD1801A704730B50B46014600202B
:1002F0002022012409E021FA02F59D4205D303FAE8
:1003000002F5491B04FA02F52844151EA2F1010268
:10031000F1DC30BD202A04DB203A00FA02F1002093
:1003200070479140C2F1200320FA03F31943904033
:100330007047202A04DB203A21FA02F0002170479E
:1003400021FA02F3D040C2F120029140084319463D
:1003500070472DE9FE4F804681EA0300C00F0C462E
:10036000009021F0004123F00045B8EB0200A941C4
:1003700005D24046214690461C460B46024623F0D5
:100380000040104347D0270DC7F30A00C3F30A51BA
:100390000290401A019040286BDAC3F3130040F436
:1003A000801B0098924620B10023D2EB030A63EB36
:1003B0000B0B01985946C0F140025046FFF7AAFFC7
:1003C00006460D4650465946019A00F08DF910EB4D
:1003D00008006141002487EA115284EAE7731A4356
:1003E00040D0009A62B3019A012A4FEA075215DC05
:1003F000001B61EB02014FF0004202EA0752CDE917
:100400000042001C41F5801132462B4600F08DF968
:1004100003B0BDE8F08F40462146F9E7001B61EBD1
:100420000201001C41F5801300185B412018A2F561
:10043000001747EB030140EAD570B6196D4111E092
:100440006D084FEA360645EAC0754FEA0752001BB1
:1004500061EB0201001C41F5801149084FEA3000B0
:100460000019514132462B4603B0BDE8F04F00F071
:100470004DB90098012240000023D0EB020263EB4B
:10048000E073009821464FEAE074B8EB000061EB9E
:100490000401E9E783F000435BE781F0004158E79E
:1004A0002DE9FE4F81EA030404F0004421F00041ED
:1004B00000944FF0000B23F0004350EA01045ED09B
:1004C00052EA03045BD0C3F30A54C1F30A552C4427
:1004D000A4F2F3340194A0FB0254C1F3130141F4DC
:1004E0008011C3F3130343F4801301FB024400FBA8
:1004F000034E840A970A44EA815447EA8357A4FBCF
:10050000076802958D0A05FB07854FEA932C04FBCB
:100510000C542705029D4FEA065847EA1637B5EBFB
:1005200008056EEB070C870E920E47EA811742EA28
:100530008312A7FB0201B6EB0B0164EB00042B0D49
:1005400043EA0C335E1844EB1C50DA465146E7FB95
:100550000201C5F313044FEA0B3343EA14534FEA85
:100560000432019C43EA0603A4F10C040294009CAB
:10057000CDE900B400F0D9F803B0BDE8F08F002059
:100580000146F9E72DE9F04D81EA030404F0004B40
:1005900021F0004514464FF0000A23F0004150EAD4
:1005A000050220D054EA01021DD0C5F30A570246C5
:1005B000C5F31303C1F31300C1F30A5640F48015C9
:1005C00043F48013A7EB0608101BD64608F2FD384B
:1005D00073EB050002D308F1010801E092185B41BA
:1005E000B8F1000F03DA00200146BDE8F08D0020CD
:1005F0004FF48011064684460EE0171B73EB050787
:1006000005D3121B63EB050306434CEA010C4908B2
:100610004FEA300092185B4150EA0107EDD152EAEF
:10062000030012D082EA040083EA0501084305D0E2
:10063000101BAB4106D20122002306E000224FF03E
:10064000004302E06FF0010253101AEB06004CEB7E
:10065000085110EB0A0041EB0B01BDE8F04D00F032
:1006600055B8C1F30A52C1F3130140F2FF3341F40C
:1006700080119A4202DA00200146704740F233436B
:100680009A42A2F2334202DC5242FFF752BEFFF717
:1006900041BE000030B5041E71F1000404DB4FF0D0
:1006A0000044404264EB0101141E73F1000405DBB9
:1006B0001C464FF00043524263EB0403994208BFCB
:1006C000904230BD064C074D06E0E06840F0010363
:1006D00094E8070098471034AC42F6D3FFF790FD3A
:1006E0000449000824490008202A06DBCB17203AD9
:1006F00041FA02F043EAE07306E041FA02F3D04027
:10070000C2F12002914008431946704710B5141EEB
:1007100073F1000408DA401C41F1000192185B41BA
:100720001A4301D120F0010010BD2DE9F04D924691
:100730009B4611B1B1FA81F202E0B0FA80F22032A8
:100740009046FFF7E7FD04460F4640EA0A0041EAFB
:100750000B0153465A46084313D0114653EA010091
:1007600019D0C8F140025046FFF7E3FD05460E469A
:10077000504659464246FFF7CDFD084305D00120BB
:1007800004E020463946BDE8F08D0020054346EAE6
:10079000E0762C4337430A986305E40AA0EB08008F
:1007A0000022FD0A44EA47540A3002D500200146DF
:1007B000E9E7010510196941DDE9084500196941BA
:1007C000BDE8F04DA2E7FEE7704790F8351002292A
:1007D00003D08021416501207047052180F8351044
:1007E0000068016821F001010160002070470000ED
:1007F00070B5044600F000F90546601C02D00448BC
:100800000078044400F0F8F8401BA042FAD370BD11
:10081000340000202DE9F84FDFF89CE100224FF072
:1008200001084FF0030B4FF00F0A00BF0B6808FAE6
:1008300002F42340A34271D14D68022D01D0122D44
:100840000FD1D5080E69570700EB8505A9462D6A1B
:10085000FF0E0AFA07FCBE4025EA0C052E43C9F834
:1008600020600F79550006680BFA05FC07F00307B6
:1008700026EA0C06AF40374307604E68012E05D0CC
:10088000022E03D0112E01D0122E0ED18668CF6811
:1008900026EA0C06AF403743876046680F79A643C7
:1008A000C7F30017974037434760C4688E6824EA4F
:1008B0000C04AE402643C6604C68E40075D53F4C3E
:1008C000256845F480452560246822F003069507D5
:1008D00004F4804400943A4C2D0F2644D6F808487E
:1008E000DFF8E0C00AFA05F7604524EA070401D101
:1008F00000272EE0344FB84201D1012729E0334FC1
:10090000B84201D1022724E0314FB84201D1032778
:100910001FE0304FB84202D104271AE045E02E4FC5
:10092000B84201D1052714E02C4FB84201D1062767
:100930000FE02B4FB84201D107270AE0294FB842F8
:1009400001D1082705E0284FB84201D1092700E06E
:100950000A27AF4027437546C6F808784E68DEF888
:100960000040F60324EA030400D51C43124E2C6019
:10097000361D4D683468AD0324EA030400D51C43DA
:100980000D4F346008374D683C68ED0224EA0304DB
:1009900000D51C43084D3C600C354E682C68B602EF
:1009A00024EA030400D51C432C60521C102AFFF4D7
:1009B0003DAFBDE8F88F0000003C014044380240E4
:1009C00000300140000002400004024000080240E4
:1009D000000C0240001002400014024000180240C7
:1009E000001C024000200240002402400AB1816144
:1009F00070470904FBE70000014880687047000069
:100A00003400002030B590F84120202A24D190F8FD
:100A10004020012A20D0012380F84030242280F891
:100A20004120202300240268156825F00105156087
:100A30000268156825F480551560026815680D4335
:100A4000156001680A6842F001020A6080F84130CE
:100A500080F84040002030BD022030BD30B590F815
:100A60004120202A22D190F84020012A1ED00123C3
:100A700080F84030242280F841202024002502689C
:100A8000136823F0010313600268136823F4706392
:100A900043EA0121116001680A6842F001020A601C
:100AA00080F8414080F84050002030BD022030BD29
:100AB0007047704730B403689A691968D243D40507
:100AC00009D4CC43240606D4456C4FF4807445F019
:100AD00001054564DC6153050AD4CB431B0607D4EA
:100AE000446C4FF4806344F0080444640468E36198
:100AF00092050AD4C943090607D4426C4FF4007129
:100B000042F0020242640268D161416C11F00B0FA5
:100B100002D030BC01F098BE30BC70470268436B15
:100B200091691268002B00D0184770477047000089
:100B300070B5040004D094F84100002510B106E01F
:100B4000012070BD204684F8405000F073F9242045
:100B500084F841002068016821F001010160D4E9B6
:100B6000001020F0706008612068816821F4004165
:100B70008160E06821680128A06806D040F4044044
:100B80008860E068022803D006E040F40040F7E700
:100B900021684FF40060486020212068114A4368B2
:100BA000134343602068C26822F40042C26054F8D4
:100BB000106B0DCC104340EA0320F06054F81C3C4D
:100BC000D4E900021043186054F81C0D026842F08A
:100BD00001020260656484F84110256384F8425084
:100BE000002070BD00800002704700002DE9F84F22
:100BF000044690F841001F469046DDF828A08B4639
:100C000020287ED194F8400001287AD0012084F871
:100C10004000FFF7F1FE0122064619230090D103A0
:100C2000204602F041F8E0BB0025222184F8411063
:100C3000102084F8420065646785618DFF27324883
:100C40004FF00079C4F82480FF294FF08078656365
:100C500003D927853A46009039E0618D21850090BF
:100C60003AE05946204602F009F813E002F04AF84B
:100C7000B8B92068616A406A0870606A401C6062A6
:100C8000208D401E81B22185608D401E6085608D63
:100C900000B169B1608D3246514600282046E5D149
:100CA00000E002E002F072F8D0B10120BDE8F88F58
:100CB0000022534680212046009601F0F5FF0028CF
:100CC000F3D1608DFF2804D927853A460095434625
:100CD000C7E7608D208500954B4694F82820C0E733
:100CE00020682021094AC16120684368134043609D
:100CF00084F8411084F84250002084F84050D5E731
:100D0000FFE70220D2E700000024008000E800FE98
:100D10002DE9F84F044690F841001F469046DDF853
:100D200028A08B4620287ED194F8400001287AD054
:100D3000012084F84000FFF75FFE012206461923D8
:100D40000090D103204601F0AFFFE0BB0025212138
:100D500084F84110102084F8420065646785618D35
:100D6000FF2732484FF00079C4F82480FF294FF064
:100D70008078656303D927853A46009039E0618D14
:100D8000218500903AE05946204601F077FF13E0B4
:100D900002F023F8B8B9606A216800788862606A56
:100DA000401C6062608D401E6085208D401E80B2B8
:100DB0002085618D01B168B1608D324651460028B1
:100DC0002046E5D100E002E001F0E0FFD0B10120D3
:100DD000BDE8F88F0022534680212046009601F09E
:100DE00063FF0028F3D1608DFF2804D927853A4698
:100DF00000954346C7E7608D208500954B4694F8E3
:100E00002820C0E720682021094AC1612068436882
:100E10001340436084F8411084F84250002084F865
:100E20004050D5E7FFE70220D2E700000020008015
:100E300000E800FE10B586B0044614216846FFF7AE
:100E400041FA1A49206888422ED11948016841F0B8
:100E50002001016000681221012200F020000590AD
:100E6000032004238DE80700CDE9030311486946F8
:100E7000FFF7D0FC0E481030016841F4800101609A
:100E800000680022032100F480000590212000F07A
:100E90006FF8212000F05EF800220221222000F0ED
:100EA00067F8222000F056F806B010BD0058004048
:100EB0003038024000140240704770470248816891
:100EC000027811448160704734000020032010B57F
:100ED00000F06EF8002000F005F800F023F8002084
:100EE00010BD000070B50D4D04464FF47A700C4AE9
:100EF00029781268B0FBF1F0B2FBF0F000F0EFFFE0
:100F000048B9102C07D200222146501E00F030F8BC
:100F100000206C6070BD012070BD00003400002016
:100F2000400000200A4808B5016841F08051016086
:100F3000006800F0805000900548001D016841F4F1
:100F400080410160006800F48040009008BD00000E
:100F500040380240002809DB410900F01F028900E7
:100F6000012001F1E0219040C1F80001704700002C
:100F70000E4BF0B41B680D46C3F30223C3F1070602
:100F8000042E00D90426191D072901D2002300E0F0
:100F9000DB1E012404FA06F19C40491E2940641E10
:100FA000994014402143F0BC02F06EBF0CED00E00C
:100FB000064900F0070210B54FF6FF040868044B1D
:100FC000204040EA02201843086010BD0CED00E00C
:100FD0000000FA052DE9F84F04460078DFF8249464
:100FE0004FF000063746C0070ED0D9F8001021F4A4
:100FF0000001C9F80010D9F80010626B1143C9F85C
:101000000010606B00B90126FE4D20688435000396
:101010000ED5E16B286820F4401008432860E06B8F
:10102000B0F5801F01D010B102E0012600E00127D9
:1010300020684FF4800BC0020CD5216C286820F486
:10104000400008432860206C584501D1012601E08A
:1010500000B901272068C10100D50126800666D5A8
:10106000E8483830016841F0805101600068DFF8DD
:1010700098A300F080500090DAF8001041F48071DD
:10108000CAF80010FFF7B8FC804605E0FFF7B4FC93
:10109000A0EB080064287DD8DAF80000C005F5D57B
:1010A000DFF8608308F16808D8F8000010F4407099
:1010B0002AD0218E01F44071814225D0D8F8001049
:1010C000D8F8002021F4407142F48032C8F80020A2
:1010D000D8F8002022F48032C8F80020C8F80010A8
:1010E000D8F80000C0070FD0FFF786FC824607E063
:1010F000FFF782FCA0EB0A0141F288308142CAD896
:10110000D8F800008007F3D5206BC0F30121032934
:101110007ED0D9F8001021F4F811C9F80010228E01
:10112000D8F80010C2F30B021143C8F80010207861
:10113000C00607D5286820F0807028602868A16B59
:10114000084328602188AF488830490405D5626E7D
:10115000016821F44031114301602188090405D55B
:10116000A26E016821F44021114301602168C90386
:1011700005D5E26E016821F4401111430160216838
:10118000890305D5226F016821F4400111430160F4
:10119000217800E034E1490605D5626C016821F050
:1011A0000301114301602178090605D5A26C01688D
:1011B00021F00C01114301602188C90505D5E26CBD
:1011C000016821F03001114301602188890505D5AE
:1011D000226D016821F0C001114301602188490599
:1011E00005D5626D016821F44071114301602188C9
:1011F000090505D5A26D016821F440611143016024
:101200002188C90407D5E26D016821F4405100E04E
:101210005FE0114301602188890405D5226E0168D1
:1012200021F44041114301602168490205D5A26FB4
:10123000016821F080611143016021684FF0006A6C
:10124000890209D5E26F016821F000611143016054
:10125000E16F514500D1012721680A0700D5012718
:10126000490305D5626F016821F0407111430160A7
:101270002168090206D5D4F88020016821F0805148
:10128000114301602168490106D5D4F88420016822
:1012900021F00051114301602068000106D5D4F807
:1012A0008810286820F00070084328602068C0007B
:1012B00006D5D4F88C10286820F080600843286098
:1012C000DFF84891012E0ED02068B0F1007F0AD0DF
:1012D0008FE04F4AD9F80030104023F4F81202434F
:1012E000C9F800201BE7D9F800004E4620F08060C6
:1012F000C9F80000FFF780FB804605E0FFF77CFBA4
:10130000A0EB080064287BD830680001F6D421786F
:101310003C487C30C90712D0616B81B9237A62687E
:101320000168D0F800C09201C1F3014142EA0142D4
:10133000CCF3036142EA016141EA03710160216873
:101340000A0303D5E26BB2F5801F04D0C9021AD597
:10135000216C594517D16368016894F80CC0026884
:101360009B01C1F3014143EA0141C2F3027241EA28
:101370000C6141EA027101602968626A21F01F0173
:10138000521E114329602168C90110D5238A626861
:101390000168D0F800C09201C1F3036142EA034240
:1013A00042EA0162CCF3027142EA017101602168F4
:1013B00089010CD56168228A237B94F808C08901D1
:1013C00041EA024141EA036141EA0C71016031687E
:1013D000B04641F080613160FFF70EFB064604E045
:1013E000FFF70AFB801B64280AD8D8F80000000128
:1013F000F6D5E7B3D9F800004E4620F0805009E05A
:101400007BE00000083802400070004000380240D5
:10141000FFFCFF0FC9F80000FFF7EEFA074604E0F3
:10142000FFF7EAFAC01B642867D83068C043800021
:10143000F6D5216835480A0301D5E26B1AB1C90215
:101440001DD5216CD9B963690168277E02689B01AB
:10145000C1F3014143EA0143C2F3027143EA076267
:1014600042EA0171016029686FF0FF0300E04BE080
:10147000A26A21F4F85103EB02221143296021688A
:10148000890212D5E16F51450FD1238C6269016841
:1014900007689201C1F3036142EA034242EA016232
:1014A000C7F3027142EA017101602178090716D57C
:1014B00061690268D0F800C08B01277FC2F3036224
:1014C000CCF3014143EA014141EA026141EA07717B
:1014D00001602868E16A20F44030084328603068E1
:1014E00040F080503060FFF787FA044608E000BF04
:1014F000FFF782FA001B642802D90320BDE8F88FA9
:101500003068C0438000F3D40020F7E788380240F9
:101510002DE9F04705000F4663D0444E306800F0D7
:101520000F00B84209D2306820F00F003843306015
:10153000306800F00F00B84253D128683C4C810756
:1015400012D5400703D5206840F4E0502060287889
:10155000000703D5206840F460402060A968206837
:1015600020F0F000084320602878C0072AD03049D6
:1015700068680839012810D00968022810D0890746
:1015800000292EDA216821F0030101432160FFF7D1
:1015900033FA804641F288390DE009688903EFE7A4
:1015A0008901EDE7FFF728FAA0EB0801494502D9C8
:1015B0000320BDE8F0876868216801F00C01B1EBF9
:1015C000800FEFD1306800F00F00B8420BD93068BF
:1015D00020F00F0038433060306800F00F00B84250
:1015E00001D00120E5E72878400705D5E9682068A3
:1015F00020F4E050084320602878000706D52869C9
:10160000216821F4604141EAC000206000F016F832
:101610002168084AC1F30311515CC84006490860BB
:101620000020FFF75FFC0020C3E70000003C024001
:1016300008380240F448000840000020154910B561
:101640001548096811F00C0213D01449042A0FD070
:10165000082A0ED10F4C241F2268236802F03F0293
:101660005B0207D52068C0F38810A0FB010106E0EB
:10167000084610BD2168C1F38811A1FB00010023B9
:10168000FEF7D6FD2168C1F30141491C4900B0FBBA
:10169000F1F010BD083802400024F40040787D01CC
:1016A0002DE9F84F05004FF000076ED02878DFF8DD
:1016B0002093A9F1040AC007AAF104044CD0D9F878
:1016C00000104846C1F38101012908D00068C0F329
:1016D000810002280AD1DAF80000400206D520680D
:1016E000800339D568680028DFD035E06868B0F538
:1016F000803F0BD010B1B0F5A02F11D0206820F49E
:1017000080302060206820F4802002E0206840F4CF
:1017100080302060686890B1FFF76EF906460AE0F5
:10172000206840F480202060F0E700BFFFF764F9F4
:10173000801B642872D820688003F7D50CE0FFF77F
:101740005BF9064605E000BFFFF756F9801B6428E9
:10175000F0D820688003F7D42878800742D5D9F8DC
:101760000010484611F00C0F08D00068C0F381004B
:1017700002280BD1DAF80000400207D42068800765
:1017800018D5E868012800D114E01EE1E8680028B7
:10179000206817D040F001002060FFF72DF90646C1
:1017A00005E000BFFFF728F9801B0228C2D8206897
:1017B0008007F7D52869216821F0F80141EAC000C7
:1017C00020600FE020F001002060FFF715F90646C9
:1017D00005E000BFFFF710F9801B02281ED8206823
:1017E0008007F7D42878000729D5794869696C30D3
:1017F00000298046016812D041F001010160FFF725
:10180000FBF8064605E000BFFFF7F6F8801B02284C
:1018100004D8D8F800008007F6D510E089E021F060
:1018200001010160FFF7E8F8064604E0FFF7E4F87D
:10183000801B02287DD8D8F800008007F6D42878CD
:1018400040076BD5DFF8888108F13808D8F8000028
:10185000C0000BD4D8F8001041F08051C8F8001037
:10186000D8F80000012700F0805000905948016826
:10187000C90512D40168834641F480710160FFF705
:10188000BBF8064605E000BFFFF7B6F8801B6428EA
:101890004FD8DBF80000C005F6D54D4EA868683675
:1018A00001280AD008B1052811D0306820F00100C5
:1018B0003060306820F0040002E0306840F0010041
:1018C0003060A868A0B1FFF797F883460CE0306855
:1018D00040F004003060F0E7FFF78EF8A0EB0B015A
:1018E00041F28830814268D830688007F4D50EE034
:1018F000FFF782F8834607E0FFF77EF8A0EB0B01C5
:1019000041F28830814258D830688007F4D42FB132
:10191000D8F8001021F08051C8F80010A869E0B391
:10192000D9F80010C1F3810102294ED002282068A5
:1019300000E042E020F08070206003D0FFF75CF808
:1019400005463DE0FFF758F8064604E0FFF754F877
:10195000801B022831D820688001F7D4D5E90921FD
:10196000DFF874C0D5E9070695F830304F0895F8D0
:101970002C1030430CEB074545EA8212104340EA35
:10198000016040EA0370CAF80000206840F08070EF
:101990002060FFF731F8054605E014E0FFF72CF86A
:1019A000401B022809D820688001F7D50BE000BF52
:1019B000FFF722F8401B022802D90320BDE8F88F68
:1019C00020688001F4D40020F8E70120F6E7000049
:1019D00008380240007000400000FFFF2DE9F0478A
:1019E000040005D094F85D000025A56218B107E059
:1019F0000120BDE8F087204684F85C5000F050F8E4
:101A0000022284F85D204FF4E0632068016821F031
:101A100040010160E068984201D9002101E04FF4E3
:101A20008051B0F5706F02D0984200D0A5624FF09F
:101A30000109266B2EB9984201D9226301E0C4F84E
:101A40003090D4E90468D4E90102278B46EA0806FD
:101A5000A36A104307F4007830432668D4E907C22C
:101A600040EA080040EA0C00CC4604271043184323
:101A70003060D4F81880666B606AE26807EA18473D
:101A8000236830433A431043084358602068C169D3
:101A900021F40061C161256684F85DC00020A8E7DB
:101AA00010B586B0044614216846FEF70BFC1249B7
:101AB000206888421DD11148016841F480510160BD
:101AC000006800F4805005900C481438016841F01B
:101AD0000101016000680221002200F00100059070
:101AE000E020032305248DE81F0005486946FEF722
:101AF00091FE06B010BD00000030014044380240A5
:101B0000000002402DE9F84F044690F85C000027E1
:101B10001D460128164689460DD04FF0010B84F86A
:101B20005CB0FEF769FF804694F85D00BA46012874
:101B300004D002279DE00220BDE8F88FB9F1000F24
:101B400074D0002E72D0A2680321C4F83890A68702
:101B500084F85D10C4F860A0E687C4F840A0A4F83B
:101B600044A0A4F846A0B2F5004FC4F850A0C4F8B1
:101B70004CA004D12068016841F4804101602068D4
:101B80000168490603D4016841F040010160E06842
:101B9000B0F5E06F606823D908B1012E1CD1A06BAD
:101BA00021680088C86006E020688168890709D537
:101BB000A16B0988C160A06B801CA063E08F401EF0
:101BC000E08709E0FEF718FFA0EB0800A84202D367
:101BD000681C01D044E055B3E08F0028E4D134E024
:101BE00008B1012E2ED1E08F012804D9A06B216805
:101BF0000088C86014E0A16B206809780173A06BAD
:101C0000401CA063E08F401EE0871BE020688168D5
:101C100089070DD5E18F0129A16BEED90988C16033
:101C2000A06B801CA063E08F801EEDE720E017E032
:101C3000FEF7E2FEA0EB0800A84202D3681C01D028
:101C40000EE06DB1E08F0028E0D1424629462046E3
:101C500001F0B7FB08B120202066A06810B105E0B4
:101C6000032706E02068C16880680090206E00B1FC
:101C7000012784F85DB0384684F85CA05CE72DE964
:101C8000F05F8B4690F85C1000271D460A9E0129E4
:101C9000924604464FF001090ED0012084F85C0002
:101CA000FEF7AAFE804694F85D00616801280CD01A
:101CB000B1F5827F07D102E00220BDE8F09FA16864
:101CC00009B9042801D00227FFE0BBF1000F24D09E
:101CD000BAF1000F21D005B394F85D00042802D0BA
:101CE000052084F85D00A4F844500020A5874FF437
:101CF000E062C4F838B0C4F840A0E16820669142C0
:101D0000E0642065A4F84650E58701D8012D06D986
:101D10002068416821F4805105E00127D5E0206862
:101D2000416841F48051416020680168490603D44C
:101D3000016841F040010160E0689042606845D967
:101D400008B1012D3AD1A06B21680088C860A06B52
:101D5000801CA063E08F401EE0872FE02068816830
:101D600089070FD5E18F69B1B9F1010F0AD1A26BD3
:101D70004FF000091188C160A06B801CA063E08F48
:101D8000401EE08720688168C9070FD0B4F846106C
:101D900061B1C0684FF00109226C1080206C801C7A
:101DA0002064B4F84600401EA4F84600FEF724FE66
:101DB000A0EB0800B04201D3701C74D1E08F002862
:101DC000CCD1B4F846000028C8D175E008B1012D87
:101DD0006BD1E08F21680128A06B07D90088C8600B
:101DE000A06B801CA063E08F801E06E00078087363
:101DF000A06B401CA063E08F401EE08755E0206888
:101E0000816889071AD5E18FC1B1B9F1010F15D1E8
:101E1000E18F0129A16B07D90988C160A06B801CE3
:101E2000A063E08F801E06E009780173A06B401C60
:101E3000A063E08F401EE0874FF0000920688168B2
:101E4000C90728D0B4F8461029B3B4F846100129C0
:101E500014D9C068216C0880206C801C2064B4F800
:101E60004600801EA4F84600B4F84600012810D8A9
:101E70002068416841F4805141600AE0007B216C98
:101E80000870206C401C2064B4F84600401EA4F882
:101E900046004FF00109FEF7AFFDA0EB0800B0428D
:101EA00002D3701C01D018E0BEB1E08F0028A6D18B
:101EB000B4F846000028A2D142463146204601F03F
:101EC00080FA10B1202020660127012084F85D00EF
:101ED0000021384684F85C10EFE60327F5E7401E42
:101EE000B0F1807F10B501D3012010BD4FF0E02488
:101EF00060610F21601701F0C7FF0020A06107217A
:101F0000216110BD704770477047000070B590F8B0
:101F10003C20012A24D0134C012580F83C50022299
:101F200080F83D2002685368A242966802D00E4CA9
:101F3000A24203D14C6823F4700323430C6823F0BE
:101F4000700389681C435460002326F080060268F1
:101F50003143916080F83D5080F83C30184670BDA8
:101F6000022070BD000001400004014010B50400D3
:101F700003D094F83D0010B107E0012010BD00200F
:101F800084F83C00204600F00DF8022084F83D0063
:101F90002068211D01F050FB012084F83D00002045
:101FA00010BD000008B500680B49884212D10B48EB
:101FB000016841F00101016000680022012100F088
:101FC000010000901920FEF7D3FFBDE8084019205A
:101FD000FEF7C0BF08BD00000000014044380240C9
:101FE0000168094ACB6843F00103CB600168886847
:101FF0001040062806D0B0F5803F03D0086840F0B6
:1020000001000860002070470700010070B5044619
:1020100090F83C00012817D0324B012584F83C5041
:10202000022084F83D0022689068184020F47F4028
:1020300090600868502830D00DDC20284DD005DC99
:1020400098B310283BD148E0022070BD302844D01E
:10205000402834D139E0602828D0702806D0B0F567
:10206000805F2CD0B0F5005F29D10AE04A68206873
:10207000D1E9021301F053FB2068816841F0770138
:1020800009E04A682068D1E9021301F048FB2068A2
:10209000816841F48041816011E0CA684968206824
:1020A00001F084FC2068502107E016E0CA68496806
:1020B000206801F08CFC2068602101F039FB0020D1
:1020C00084F83D5084F83C0070BDCA6849682068B7
:1020D00001F06CFC20684021EFE7226801461046C1
:1020E000EBE7000088FFFEFF2DE9F04104000D46FC
:1020F00003D094F83D0018B108E00120BDE8F0815C
:10210000002084F83C00204600F042F81F4A0220DC
:1021100084F83D0020688168114081602068211D9D
:1021200001F08AFA226840F20336AF6940F60C4C9F
:102130002B684FF2F00EA86891680B439169B14388
:1021400041EA07210843D5E9031720EA0C00D5E945
:10215000076C20EA0E00D2F820E03F0140EA062694
:1021600068686D69314347EA0C37936023680F4311
:1021700001229F612EF0AA0141EA0513216818434C
:10218000086284F83D200020B8E70000F8BFFEFF99
:1021900010B586B0044614216846FEF793F813493B
:1021A000206888421FD11248016841F00201016095
:1021B000006800F0020005900D481038016841F0F9
:1021C00004010160006801ACC02100F0040005902A
:1021D0000220009101226946002384E80D0004904A
:1021E0000448FEF717FB06B010BD000000040040D5
:1021F000403802400008024010B50446006891B122
:10220000042904D00122002101F07CFA2068012277
:102210005FF0040101F076FA2068016841F00101E5
:102220000160002010BD01220021F3E7704770B566
:102230000446006800250169C943890715D4C168AF
:10224000C943890711D4EA1E026101212177206860
:1022500080698007204602D0FFF7E8FF04E000F025
:10226000CDF8204600F08CF9257720680169C94334
:10227000490717D4C168C943490713D402216FF035
:102280000402026121772068806910F4407F2046B3
:1022900002D0FFF7CBFF04E000F0B0F8204600F0DA
:1022A0006FF9257720680169C943090716D4C16809
:1022B000C943090712D404216FF008020261217793
:1022C0002068C0698007204602D0FFF7AFFF04E016
:1022D00000F094F8204600F053F925772068016952
:1022E000C943C90617D4C168C943C90613D4082114
:1022F0006FF01002026121772068C06910F4407FFE
:10230000204602D0FFF792FF04E000F077F8204665
:1023100000F036F9257720680169C943C90708D15B
:10232000C168C943C90704D1891E0161204600F074
:102330004FF920680169C943090609D4C168C94336
:10234000090605D46FF0800101612046FFF7DBFD2F
:1023500020680169C943C90509D4C168C943090690
:1023600005D46FF4807101612046FFF7CBFD206832
:102370000169C943490609D4C168C943490605D45E
:102380006FF040010161204600F0BCF9206801694E
:10239000C94389060BD4C168C943890607D46FF0C5
:1023A000200101612046BDE87040FFF7ADBD70BD62
:1023B00010B586B0044614216846FDF783FF2068F7
:1023C000B0F1804F14D10B48016841F00101016068
:1023D00000680021022200F0010005900120009019
:1023E000CDE90121CDE9031003486946FEF712FA51
:1023F00006B010BD3038024000000240704770B592
:10240000044690F83C000D4601280ED0012684F8C1
:102410003C60022084F83D000C2A45D007DC5AB10C
:10242000042A1BD0082A78D12CE0022070BD102A83
:102430004ED0142A71D15DE0206801F081F9206846
:10244000816941F0080181612068816921F00401FE
:10245000816120682A698169114311E0206801F0D7
:10246000A9F92068816941F400618161206881696E
:1024700021F48061816120682969826942EA012131
:1024800081614AE0206801F0D1F92068C16941F01A
:102490000801C1612068C16921F00401C16120689F
:1024A0002A69C169114311E0206801F0FBF9206835
:1024B000C16941F40061C1612068C16921F4806192
:1024C000C16120682969C26942EA0121C16124E031
:1024D000206801F013FA2068416D41F00801416560
:1024E0002068416D21F00401416520682A69416D31
:1024F000114311E0206801F02DFA2068416D41F48C
:10250000006141652068416D21F48061416520686A
:102510002969426D42EA01214165002084F83D604D
:1025200084F83C0070BD10B5040003D094F83D0061
:1025300010B107E0012010BD002084F83C002046C7
:1025400000F00CF8022084F83D002068211D01F005
:1025500073F8012084F83D00002010BD08B5006824
:10256000B0F1804F08D10548016841F001010160D8
:10257000006800F00100009008BD000040380240F3
:102580007047000010B501220446006801F0BAF857
:102590000C492068884202D00B49884203D1416C23
:1025A00041F4004141642068084A816811400629CD
:1025B00006D0B1F5803F03D0016841F00101016010
:1025C000002010BD00000140000401400700010090
:1025D000F8B53A4E00210420022332464FF4C87564
:1025E0003170C421707036480095FEF791FB0A20C7
:1025F000FEF7FEF80F20307031480123C421324627
:102600000095FEF785FB2E480123C421009506F1B5
:102610000C02FEF7EBFA06F10C073446387800029C
:1026200060800120FEF7E4F8102030702448012378
:10263000C42122460095FEF76BFB21480123C421EB
:102640003A460095FEF7D2FA3878618808436080F0
:102650000120FEF7CDF8608800EE100AB8EE400ABF
:1026600084ED010A00F048FE082084ED020A00F023
:10267000DDFB0121084600F093FC002111A000F0D1
:1026800027FC0121022000F08BFC94ED020A13A02C
:1026900000F00DFC0121032000F082FC94ED010A02
:1026A00013A000F004FC4FF47A70FEF7A1F800F0DC
:1026B000CBFBBDE8F8401420FEF79AB818000020C4
:1026C000200200202A2A2A2050524F4A4554204CEA
:1026D00049444152202A2A2A000000005649544504
:1026E0005353453A252E32662074722F6D6E0000CA
:1026F00044495354414E43453A252E326620636D7A
:10270000000000007047FEE70148FEF7D3B9000063
:10271000200200200148FEF701BA0000200200203C
:1027200010B5806B0021826B1165C26B116590F84A
:102730004110602902D0FEF7F9F910BD202180F880
:102740004110FEF7B5F910BDCA074FF028034FF04E
:10275000000210B506D090F84140422233EA04044A
:1027600000D0F2228C0707D590F8414042F0440295
:10277000A34301D042F0B0024B0701D542F0B802AA
:1027800011238B4301D142F0900212238B4301D1DC
:1027900042F06002006801689143016010BD016869
:1027A0008A69D243920701D400228A620068816953
:1027B000C943C90703D0816941F0010181617047B4
:1027C0002DE9F041044690F8410028210025082316
:1027D0008143206804D0C36184F84050BDE8F08193
:1027E000876986694FF0FE0E8168C268C7F30047AB
:1027F000D4F80CC00EEA164602F0FE02BCF1020F3D
:10280000C1F3090118D14FF0060C06F006060CEAD8
:10281000D11C66450FD1A66C0A46761CA664A16C35
:102820000229DBD1A564C36184F8405039462046B3
:10283000FEF73FF9D2E7164620460421FFF784FF52
:10284000324684F84050F1E770B5344A002504461A
:1028500090F84100202684F84250E2626585626C5F
:10286000282842EA0102626425D0292823D02A2898
:1028700021D007212046FFF767FF94F84100602828
:1028800001D084F8416025636563206824490268AB
:10289000520402681AD522F480420260A06B00281C
:1028A00033D0016584F84050A06BFDF78EFF0028FF
:1028B0002BD0A06B1CE003212046FFF745FF1949F0
:1028C0002820616384F841002563DEE7120413D5F4
:1028D000026822F400420260E06B002815D0016516
:1028E00084F84050E06BFDF770FF00280DD0E06BDE
:1028F000016DBDE87040084794F84100602805D09C
:10290000204684F84050FEF711F970BD84F841600C
:10291000204684F84050FEF7CBF870BD0000FFFF62
:1029200021270008592B000870B50446164AC843F1
:10293000002541074FF02000E262256384F8410042
:1029400084F84250656311D42068616A406A087057
:10295000606A401C6062208D40B1618D401E208500
:10296000491E6185606C40F00400606407212046C8
:10297000FFF7EAFE21681020C861204684F8405025
:10298000FEF732F970BD00000000FFFF2DE9F041B5
:102990000446006820270E460568C76107212046C7
:1029A000FFF7D2FE20683349426842F40042426099
:1029B000206842680A4042602046FFF7F0FEE84384
:1029C000410401D4A06B02E0000404D4E06B10B118
:1029D000006840686085F04340070FD4206826F007
:1029E0000406616A406A0870606A401C6062208D5B
:1029F00020B1618D401E2085491E6185608D18B112
:102A0000606C40F0040060640025256384F8425047
:102A1000606C656368B1616C2046FFF715FF94F840
:102A20004100282814D131462046BDE8F041FFF787
:102A30007BBFE06A104EB0420CD0204600F01EF87A
:102A4000E66284F84170204684F84050FEF7CCF8E6
:102A5000BDE8F08194F8410084F8417022282046B6
:102A600084F8405002D0FEF728FAF1E7FEF724FA86
:102A7000EEE7000000E800FE0000FFFF70B504462E
:102A80000025282084F8425094F84110292911D0BB
:102A900094F841102A290CD1222184F841002163A5
:102AA00002212046FFF750FE204684F84050FEF7F2
:102AB00003FA70BD212184F84100216301212046E1
:102AC000FFF742FE204684F84050FEF7F6F970BD4D
:102AD0002DE9F0410446006890460E468069C043E7
:102AE000C00635D40025202720688069C0438006B1
:102AF00016D5701CF8D0FDF77FFFA0EB0800B042A0
:102B000001D8002EF0D1606C84F8405040F02000D5
:102B1000606484F8417084F842500120BDE8F0817F
:102B200021681020C8612068C7612046FFF737FE82
:102B30002068084942680A404260606C40F0040026
:102B4000606484F8417084F8425084F84050E4E7AF
:102B50000020E3E700E800FE2DE9F04190F8403066
:102B60000446C06A0D46012B1DD0E943012384F8B9
:102B700040306FEA0206404ACF064FF0807331D4EE
:102B8000F7062FD4678D102187B12268D161616C5F
:102B900041F00401616408B1984260D1616C204643
:102BA000FFF752FE5BE00220BDE8F08194F841306F
:102BB000282B02D1B0F1007F04D094F84130292BAA
:102BC00005D00CE029462046FFF7AEFE47E09042D4
:102BD00005D02068C1612046FFF7E1FD3CE0206898
:102BE000C1613CE04F0717D4770715D4618D71B1EF
:102BF000216825F00405636A496A1970616A491CF5
:102C00006162218D491E2185618D491E6185618D1D
:102C100029BB904220D122E00A0706D4320704D40F
:102C200029462046FFF7CCFD19E0890717D4B107E4
:102C300015D4618D69B1606A216800788862606A24
:102C4000401C6062608D401E6085208D401E208586
:102C500005E0984200D010B92046FFF70FFFE84387
:102C6000800605D4B00603D429462046FFF78EFE21
:102C7000002084F8400097E70000FFFF70B500686F
:102C8000C1F30901074E41EA0241049C4FF48065FB
:102C90004268194305EA54553543AA4321430A4380
:102CA000426070BDFF63FF032DE9F0411D461746EA
:102CB0000E460446DDF8188008E0681C06D0FDF7D3
:102CC0009BFEA0EB0800A8420BD855B12068806994
:102CD00036EA000013D00020B842EED00020BDE854
:102CE000F081626C002084F84000202142F0200234
:102CF000626484F8411084F842000120EFE701206B
:102D0000EAE700002DE9F0410025904620260F4615
:102D1000044626E0424639462046FFF7D9FE80BBEE
:102D200020688069C043800614D420688169C94343
:102D3000490701D4218DC9B91349C6612068426889
:102D40000A404260656484F8416084F8425084F827
:102D5000405016E0FDF750FEA0EB0800B84208D83E
:102D60003FB120688069C0434007D3D40020BDE84C
:102D7000F081606C84F8405040F02000606484F87A
:102D800041600120F3E7000000E800FE70B5164640
:102D90000D4604460DE0324629462046FFF798FED0
:102DA00008B1012070BDFDF727FE801BA84207D89F
:102DB00035B120688069C0438006ECD4002070BD26
:102DC000626C002084F84000202142F020026264FE
:102DD00084F8411084F84200E3E770B516460D46CA
:102DE00004460FE0324629462046FFF771FE08B13F
:102DF000012070BD681C05D0FDF7FEFD801BA842B8
:102E000007D835B120688069C0438007EAD4002024
:102E100070BD626C002084F84000202142F0200246
:102E2000626484F8411084F84200E1E7054908280B
:102E300005D0002805D1C871202000F0F1B8082085
:102E4000F9E7704700000020012010B500F0C2F83B
:102E50000A20FDF7CDFC034800220121C2708170D9
:102E600010BD000000000020012010B500F0B2F8F5
:102E70004FF47A70FDF7BCFC022000F0ABF805209F
:102E8000FDF7B6FC282000F0A5F80520FDF7B0FC02
:102E90000C2000F09FF80520FDF7AAFC802000F030
:102EA00099F8BDE810404FF4FA70FDF7A1BCB7EEF9
:102EB000C00A00B599B00146684653EC102B00F0EB
:102EC000CFFF0021684600F003F819B000BD0000F4
:102ED0002DE9F047304D00260446EE7071B301290C
:102EE0002FD12E4F5FF0000047F82040401C641C9B
:102EF0006428F9DB3868FDF7F0F9274C2871A878C9
:102F00000834211811F8011C00F04AF8A97804F1DE
:102F10000408B94608EB010010F8017C1AE0641CB3
:102F200000F07EF8E878401CC0B2E870142805D1A3
:102F3000A8780121401C00F033F8EE7020780028BA
:102F4000EDD1BDE8F08700BF59F82700007800F008
:102F500067F87F1C28798742F6DBAA78A01810F85A
:102F6000011C491E11F0FF0100F8011CE9D108EB1A
:102F70000201012300F8013C11F8012C521CD2B2CD
:102F800001F8012C2B799A42DBD1142200F8012C94
:102F900001F8016C2E71D4E70000002044000020ED
:102FA0000A4B421E032A98700ED84A1E132A0BD8C9
:102FB000074A00EB800002EB8000084410F8150C73
:102FC00040F0800000F006B87047000000000020CC
:102FD000A448000838B5104C04F110026578E37974
:102FE00000EA05011943617105EA00101843A07158
:102FF00041F004031370517040F004059570D070D7
:1030000001F0C0FBC820009021780423034804F19C
:103010001002FDF77DFE38BD00000020D401002025
:10302000F8B5124C04F110026578E37900EA050165
:103030001943617105EA00101843A07141F00503BE
:10304000137041F00105557040F00506967040F090
:103050000107D77001F096FBC82000902178042367
:10306000034804F11002FDF753FEF8BD00000020F4
:10307000D40100202DE9F04387B014216846FDF704
:1030800021F93148016841F020010160016801F037
:1030900020010591016841F004010160016801F01F
:1030A00004010591016841F001010160016801F02E
:1030B00001010591016841F00201016000684FF4CF
:1030C0008466224F002200F0020031460590384607
:1030D000FDF78CFCDFF87880002201214046FDF7E7
:1030E00085FCDFF87090002208214846FDF77EFC41
:1030F00000240096012569463846CDE90154039421
:10310000FDF788FB00956946CDE9015440460394DC
:10311000FDF780FB08200090CDE901546946484640
:103120000394FDF777FB12214FF4407004238DE8E0
:10313000230003220848CDE903236946FDF76AFB13
:1031400007B0BDE8F08300003038024000140240B0
:103150000008024000000240000402400E48002126
:1031600010B50C4C01230D4A0460C0E90121C0E9EF
:10317000033141618161C1610162FDF7D9FC0648FB
:103180000021FDF73FFCBDE8104003480021FDF79A
:1031900065BC00000058004020020020F7A3A000FA
:1031A000F0B40F484FF4E06400210C4E4FF48275E8
:1031B0002023C0E9021401617215E0E805650724C7
:1031C000082580E80E00C1600161C0E90514C0E96E
:1031D0000715F0BC0248FEF701BC000000300140BA
:1031E0006C02002010B588B01348002411494FF438
:1031F000165241F288330594069403940494009483
:103200000194029480E81600C0E9033444618461AB
:10321000FEF7ACFE4FF480500390074803A9FEF779
:10322000F5FE05486946009401940294FEF76EFE8F
:1032300008B010BD00000140D002002010B58AB0D7
:10324000002468461C21079408940994FDF73AF875
:1032500010486421D8224FF08043C0E90241046144
:103260008461C0E90032FFF75EF90A4807A90794B4
:103270000994FEF74BFE60206946CDE9000405483D
:10328000002202940494FFF7BAF80248FFF790F87E
:103290000AB010BD1003002030B58DB0242168465F
:1032A000FDF710F8124800244FF6FF730F4D0994F4
:1032B00001210A9403220B94C0E90054C0E902439F
:1032C000046184610092CDE9014103940494CDE945
:1032D0000541694607940894FEF706FF044809A9CA
:1032E00009940B94FEF712FE0DB030BD00040040AF
:1032F00050030020FEE7000010EE101A104A914221
:1033000000DB64200F4B10EE101A4FF4000219443A
:10331000914200D250200C4B10EE101A19449142E9
:1033200000D23C20094A10EE101A914200DA002027
:10333000074900EE100A0968B8EEC00A48637047F2
:103340000000C8420000B8BD000038BE00002041A7
:10335000100300207047000038B50B4D0446E220F2
:1033600000228DF8000001212846FDF73FFBC8230D
:10337000694601222046FEF7C5FB01222846114678
:10338000FDF734FB38BD00000000024038B50B4D9E
:103390000446E12000228DF8000001212846FDF7B7
:1033A00025FBC823694601222046FEF7ABFB01221C
:1033B00028461146FDF71AFB38BD00000000024008
:1033C0007047F8B515460E4604460B464FF4C051FB
:1033D0000092002200F019F888B9002233468021BB
:1033E0002046009500F05CF848B9002233464FF4BF
:1033F000C0612046009500F008F8002804D0206E37
:1034000040F0200020660320F8BD2DE9F0474FF47E
:10341000C0681D4617460E46DDF8209004460CE0B5
:10342000464501D107B9007B681C06D0FDF7E4FAD8
:10343000A0EB0900A84208D23DB120688168314064
:10344000B942EDD10020BDE8F0872068416821F045
:10345000E00141606068B0F5827F0BD1A068B0F5F3
:10346000004F02D0B0F5806F04D12068016821F0D0
:1034700040010160A06AB0F5005F09D120680168D1
:1034800021F4005101602068016841F4005101609D
:10349000012184F85D10002084F85C000320D2E74D
:1034A0002DE9F0411D4617460E460446DDF818800A
:1034B00008E0681C06D0FDF79FFAA0EB0800A842C0
:1034C0000BD255B12068806836EA000030D0002069
:1034D000B842EED10020BDE8F0812068416821F0BB
:1034E000E00141606068B0F5827F0BD1A068B0F563
:1034F000004F02D0B0F5806F04D12068016821F040
:1035000040010160A06AB0F5005F09D12068016840
:1035100021F4005101602068016841F4005101600C
:10352000012184F85D10002084F85C000320D2E7BC
:103530000120CDE77047FDF7C1BC000030B5B7B042
:10354000342124A8FCF7BEFE142131A8FCF7BAFEF2
:1035500090216846FCF7B6FE1D48016841F0805195
:103560000160006800F0805036901A48016821F42C
:10357000404141F480410160006800250DF1B00C2C
:10358000022424940822A823CDE92A4500F44040CF
:10359000369010218CE81C0001202F94CDE92701E2
:1035A00024A8FEF77DF8802133AB4A010F2083E881
:1035B0002600CDE93104022131A8FDF7A9FFA003BF
:1035C0001A9500906846FDF705FD37B030BD000044
:1035D0004038024000700040104A30B5104814686E
:1035E00000210F4B44F470041460083305680D4A41
:1035F0000D4C45F00105056019600368051D134079
:10360000074A03600C322C600568E305034C25F47F
:1036100080250560803C1160236030BD88ED00E0AE
:1036200000380240FFFFF6FE103000240148FEF78C
:10363000FEBD0000D0020020F0B5274B4FF0804EB9
:10364000264D02689842264E264F274C09D07045D9
:1036500007D0A84205D0B04203D0B84201D0A04262
:1036600005D1D1F804C022F070024CEA020298425F
:103670001BD0704519D0A84217D0B04215D0B8421F
:1036800013D0A04211D0194DA8420ED0184DA84217
:103690000BD0184DA84208D0174DA84205D0174DA1
:1036A000A84202D0164DA84203D1CD6822F4407240
:1036B0002A434D6922F080022A43026098428A68B8
:1036C000C2620A68826201D0A04201D10969016325
:1036D00001214161F0BD00000000014000040040F4
:1036E00000080040000C0040000401400040014080
:1036F000004401400048014000180040001C004008
:103700000020004010B5046A012301F01F018B4026
:103710009C4304628A40016A1143016210BD42EA7F
:10372000032283680A4323F47F410A43826070477F
:10373000826822F070020A4342F0070181607047FC
:10374000F0B5026ADFF860C0184F22F00102DFF81E
:1037500060E00262066A4268836926F002060D682C
:10376000B8428C6803EA0C0323F0030344EA06041E
:1037700045EA030501D0704505D1CB6824F0080463
:10378000234323F00404B84201D0704505D122F44C
:103790004076D1E9053233431A4342608561496876
:1037A00041630462F0BD00008FFFFEFF0000014096
:1037B00000040140F0B5026A194E1A4C22F01002C2
:1037C000DFF864E00262056A4368826925F020053B
:1037D000D1F808C0A0420F6802EA060222F4407243
:1037E00045EA0C1542EA072201D0704506D1CE68A1
:1037F00025F0800545EA061525F04005A04201D0D8
:10380000704507D1D1E9054623F4406343EA8403B8
:1038100043EA860343608261496881630562F0BDC3
:10382000FF8FFFFE0000014000040140F0B5026A76
:10383000194F1A4E22F48072DFF864E00262056AC2
:103840004368C26925F40075D1F808C0B0420C681D
:1038500002EA070222F0030245EA0C2544EA0204C8
:1038600001D0704506D1CF6825F4006242EA0722F4
:1038700022F48065B04201D0704507D123F4405254
:10388000D1E9053642EA031242EA06134360C461F5
:103890004968C1630562F0BD8FFFFEFF0000014073
:1038A00000040140F0B5026A124B114F22F480521D
:1038B00098420262046A4268C36924F400548E6824
:1038C0000D6803EA070323F4407344EA063443EA2D
:1038D000052302D0084DA84204D14D6922F480424C
:1038E00042EA85124260C361496801640462F0BD26
:1038F000FF8FFFFE0000014000040140F0B5026AA6
:10390000DFF844C022F480320262056A4268446DE6
:1039100025F400350E8960450C4F0B6804EA070456
:1039200045EA064543EA040302D0094CA04204D10B
:103930004C6922F4803242EA0422426043654968BD
:1039400081650562F0BD0000000001408FFFFEFFB1
:1039500000040140F0B5026ADFF844C022F480128E
:103960000262046A4268436D24F400140E896045C3
:103970000C4F0D6803EA070344EA065443EA0523A3
:1039800002D0094DA84204D14D6922F4802242EAB6
:103990008522426043654968C1650462F0BD00004C
:1039A00000000140FF8FFFFE0004014010B5036AD4
:1039B000046A23F00A0324F00104046284690B43BF
:1039C00024F0F00141EA02118161036210BD10B5DB
:1039D000036A23F0100303628369046A23F47043CB
:1039E00024F0A00443EA0232826144EA0111016238
:1039F00010BD7022072100F0CBB900002DE9F04185
:103A000015460E46074600F063F8202D00D9202504
:103A1000002E59D000222D4C032100206270257009
:103A2000A170E070384600F00BF93146384600F0DE
:103A3000AFF822781121384600F0AAF92278122135
:103A4000384600F0A5F922781321384600F0A0F995
:103A500022781421384600F09BF922781521384647
:103A600000F096F922781621384600F091F9A278F4
:103A70003846E17800F0B2F808223846002100F01C
:103A800087F93F223846012100F082F93F2238466B
:103A9000022100F07DF94F223846042100F078F928
:103AA000002238461C2100F073F93846FFF76EFCFF
:103AB0003846FFF751FC3846FFF79BFF384600F0C9
:103AC00017F80120BDE8F0810122A4E714000020CE
:103AD00010B5064C012211462046FCF787FF002254
:103AE0002046BDE810400821FCF780BF00000240DE
:103AF00070B50C4C0022082105462046FCF776FFE5
:103B00002846FFF729FC2846FFF773FF0B222846BB
:103B1000002100F03DF92046BDE870400122082157
:103B2000FCF764BF0000024010B50446FFF761FFD8
:103B30000A222046BDE81040002100F029B900000B
:103B4000FEB5124D00220C46064601212846FCF720
:103B50004DFF04F01F008DF80400C82330460122F9
:103B600001A9FDF7CFFFFF208DF80400C8213046E2
:103B70000123009102AA01A9FEF781F8012228463B
:103B80001146FCF733FF9DF80800FEBD000002401F
:103B90007D2908D8044A53788B4204D051700A46D4
:103BA000052100F0F5B870471400002070B50A4DEB
:103BB00000220C46064608212846FCF717FF05237D
:103BC00022460B21304600F007F92846BDE8704038
:103BD00001220821FCF70ABF0000024013460F4AE9
:103BE000D17093704FF0000211B1022902D002E0AF
:103BF000082200E02022032B04D0022B05D0012B49
:103C000006D007E042F0060204E042F0040201E0C0
:103C100042F00202062100F0BBB8000014000020B0
:103C200070B505230C4605460A460A2100F0D4F873
:103C300022462846BDE870400523102100F0CCB88C
:103C40007CB508220546002100F0A2F83F22284654
:103C5000012100F09DF803222846022100F098F887
:103C600003222846114600F093F803222846042137
:103C700000F08EF805222846114600F089F80E2241
:103C80002846062100F084F80E222846072100F07D
:103C90007FF800222846082100F07AF80022284602
:103CA000092100F075F8E7248DF800408DF80140F7
:103CB00005238DF802400A216A4628468DF8034004
:103CC0008DF8044000F088F8C2218DF800108DF8BE
:103CD000011005238DF802106A4628468DF803105E
:103CE0008DF804100B2100F077F8C32228460C2130
:103CF00000F04EF8C42228460D2100F049F8C522F4
:103D000028460E2100F044F8C62228460F2100F074
:103D10003FF88DF8004005238DF8014010218DF803
:103D200002406A4628468DF803408DF8044000F0B2
:103D300053F800222846112100F02AF800222846D4
:103D4000122100F025F800222846132100F020F867
:103D500000222846142100F01BF8002228461521D5
:103D600000F016F800222846162100F011F8112262
:103D70002846172100F00CF8002228461C2100F0EC
:103D800007F8002228461D2100F002F87CBD000043
:103D900077B5104D002281B00C4601210646284619
:103DA000FCF724FE04F01F00694640F020008DF867
:103DB0000000C82330460122FDF7A4FEC823304688
:103DC000012203A9FDF79EFE012228461146FCF7B9
:103DD0000DFE7FBD000002402DE9F843114D1F4646
:103DE00090460C460022064601212846FCF7FEFDBF
:103DF00004F01F00694640F020008DF80000C82341
:103E000030460122FDF77EFEC8233A464146304641
:103E1000FDF778FE012228461146FCF7E7FDBDE8D4
:103E2000F88300000000024000220121FFF7B0BF2C
:103E300070B50C4605460021FFF782FE20F0030214
:103E40002CB1082C01D0102C07D142F003022846D7
:103E5000BDE870400021FFF79BBF70BDFEE700008A
:103E60000FB4084B10B504A902AA039800F0EEF8AD
:103E7000044602A9002000F080FC204610BC5DF83A
:103E800014FB00007B470008090700284FEA116176
:103E900004DB00F1E02080F80014704700F00F0010
:103EA00000F1E02080F8141D704702E008C8121FDE
:103EB00008C1002AFAD170477047002001E001C113
:103EC000121F002AFBD170472DE9FF5F82B000214D
:103ED000DDE90430020DDDF840B0034318D044F6AC
:103EE0001050A2F2FF3242431514119801281FD03E
:103EF000A5EB0B00401C5FEA000A4FF000064E4F96
:103F0000DFF83891B046504615D5CAF1000413E0E9
:103F1000119801244AA3012801D16FEA0B010298EC
:103F2000119AC0E90031C0E9024206B0BDE8F09F35
:103F3000CBF10000DFE704460021404A491842EB7C
:103F40000450CDE9001012E0E00707D032463B46AE
:103F500040464946FCF7A4FA8046894632463B462D
:103F600010461946FCF79CFA06460F466410002CD2
:103F7000EAD1DDE90401DDE90023BAF1000F06DA38
:103F8000FCF78EFA42464B46FCF78AFA05E0FCF74E
:103F9000F9FA42464B46FCF7F5FA04460E46002273
:103FA000284BFCF777FB03D84FF0FF30014607E0C2
:103FB0000022254B20463146FCF7CBF9FCF751FB9C
:103FC000102409E0002C0ADB0A220023FCF730F958
:103FD000039B30321A55641E50EA0102F2D1641C70
:103FE000039AC4F111031444119A012A03D0012247
:103FF00008430DD10AE0084304D000204FF0110B14
:10400000119072E7A3EB0B056D1E0DE05B4504DD1F
:104010004FF0000205F1010504E003DA4FF0000261
:10402000A5F10105002AECD002981199C0E90231EE
:10403000C0E9004579E70000000014400000F03FAF
:10404000300000000000F0430000E03F2DE9FF4F8A
:1040500095B09B468946064600250FE2252877D174
:1040600000242746F84A0121059400E0044316F88D
:10407000013F203B01FA03F01042F7D130782A28A3
:1040800011D06FF02F033078A0F13002092A16D832
:10409000059A44F0020402EB820203EB4202104450
:1040A000761C0590EFE759F8042B0592002A03DAF5
:1040B000504244F40054059044F00204761C3078D9
:1040C0002E2816D116F8010F44F004042A280DD02A
:1040D0006FF02F023078A0F13003092B09D807EBDD
:1040E000870302EB4303C718761CF3E759F8047BF8
:1040F000761C30786C280FD006DC4C2817D0682846
:104100000DD06A2814D104E0742810D07A280FD179
:104110000DE044F400140AE044F4801401E044F497
:1041200040147278824202D104F58014761C761C09
:10413000307866280BD013DC582877D009DC0028AB
:1041400075D04528F6D04628F4D047281AD19DE1ED
:1041500018E0632835D0642879D0652812D195E11C
:10416000702873D008DC6728F1D069286FD06E28DA
:104170000DD06F2806D1B5E073282CD0752875D0E6
:10418000782874D05A46179990476D1C75E1C4F38E
:104190000250022809D003280DD0D9F800100428B5
:1041A0000DD00D6009F1040967E1D9F80010EA1794
:1041B000C1E90052F6E7D9F800100D80F2E70D7062
:1041C000F0E719F8041B8DF8001000208DF80100AD
:1041D000EA46012003E059F804AB4FF0FF306107D5
:1041E0004FF0000102D40DE008F101018846B94208
:1041F0000FDA8045F8DB1AF808100029F4D108E03E
:1042000008F1010188468142FADB1AF808100029FA
:10421000F6D105985B46A0EB080721463846179A69
:1042200000F094FA284400EB080507E04DE029E18E
:104230000DE01AF8010B5A4617999047B8F101089A
:10424000F7D25B4621463846179A13E142E00A222C
:104250000092C4F302524FF0000A022A08D059F823
:1042600004CB032A4FEAEC710AD00DE029E02AE0E2
:1042700009F1070121F00702F2E802C1914609E0C5
:104280000FFA8CFC4FEAEC71042A03D14FFA8CFC34
:104290004FEAEC71002907DA0A460021DCF1000C34
:1042A00061EB02012D2202E0220504D52B228DF8BC
:1042B0000420012203E0E20701D02022F7E7904624
:1042C00059E00A2102E010220DE010214FF0000A0F
:1042D00000910BE010224FF0000A44F0040408277C
:1042E000009203E008224FF0000A0092C4F3025249
:1042F000022A05D059F804CB0021032A08D009E08E
:1043000009F1070121F00702F2E802C1914605E038
:104310001FFA8CFC042A01D10CF0FF0C4FF00008AE
:10432000220728D5702806D0009B83F0100353EA9B
:104330000A0305D00EE040228DF80420012208E097
:104340005CEA010206D030228DF804208DF80500C9
:1043500002229046009B83F0080353EA0A030AD125
:104360005CEA010201D1620705D530228DF80420F4
:104370004FF001087F1E582804D034A003900EA8E7
:1043800002900DE036A0F9E753466046009AFBF72D
:104390004FFF84460398825C0298401E0290027090
:1043A0005CEA0100F0D1029806A9081A00F1200A7F
:1043B000600702D524F4803400E00127574502DD70
:1043C000A7EB0A0000E0002000EB0A01009005982E
:1043D0004144401A0590E00306D45B462146179AF3
:1043E000059800F0B3F90544002706E001A85A46F5
:1043F000C05D179990476D1C7F1C4745F6DBE003B5
:104400000CD55B462146179A059800F09FF90544A4
:1044100004E030205A46179990476D1C0099481EB9
:1044200000900029F5DC08E0029802995A460078CD
:10443000491C0291179990476D1CBAF10001AAF12D
:10444000010AF1DC65E10000092801003031323356
:1044500034353637383961626364656600000000C0
:1044600030313233343536373839414243444546AA
:104470000000000000F058F90544761C3078002850
:104480007FF4ECAD19B02846BDE8F08F620700D488
:10449000062709F1070222F0070CFCE80223E14697
:1044A00003F000485FEA080C02D00FF2702C0DE018
:1044B0005FEA045C02D50FF2682C07E05FEAC47C77
:1044C00002D00FF2602C01E0AFF2700C4FF0FF3819
:1044D00023F00043CDF850C065280CD006DC4528F9
:1044E00009D046281DD047283DD13DE0662818D088
:1044F00067287ED138E00021112F01DB112000E078
:10450000781CCDE9000106A90EA8FFF7DDFCDDE966
:104510000F010E9A03910021009207F1010A049104
:104520004DE04FF000400097CDE9011006A90EA81C
:10453000FFF7CAFCDDE90F0203920E9B11990022DE
:10454000DDF80CA00093049211B9791C00EB010A6C
:10455000B7EB0A0004D4C0F1FF3007F1010A049060
:10456000AAEB0700019044E0012F00DA01270021A7
:10457000112F01DD112000E03846CDE9000106A928
:104580000EA8FFF7A1FCDDE90F010E9A03910021AF
:1045900004910092BA4621070CD40399514500DAE0
:1045A0008A46BAF1010F05DD009AAAF10101515CBA
:1045B000302908D0B84202DA10F1040F06DA0121DE
:1045C000CDE9011015E0AAF10101E9E7002805DCB9
:1045D000049901440491AAEB000102E0411C5145F9
:1045E00000DD8A460499401A401C01904FF00040BB
:1045F0000290200704D40198504501DBCDF80480D7
:1046000000208DF84F0002980DF14F07B0F1004FD8
:1046100025D02B200E9002984FF0020800280CDACB
:10462000404202902D200E9007E00A210298FBF7ED
:104630005BFE3031029007F8011DB8F10001A8F1CE
:104640000108F2DC02980028EFD1791E0E9808705C
:10465000307800F0200040F0450007F8020D12A865
:10466000C01B00F107081498007800B1012000EB8E
:104670000A01019801EBE07105984144401A401E7F
:104680000590E00306D45B462146179A059800F092
:104690005DF805441498007818B15A461799904768
:1046A0006D1CE00324D55B462146179A059800F05F
:1046B0004DF805441CE00498002807DBDDE9030100
:1046C000884203DD0098405C179901E0179930207B
:1046D0005A469047049805F10105401C0490019842
:1046E000401E019004D12E205A46179990476D1C08
:1046F000BAF10001AAF1010ADDDC05E017F8010BAF
:104700005A46179990476D1CB8F10001A8F10108AD
:10471000F4DC5B462146179A0598ABE62D000000B5
:104720002B000000200000002DE9F0410446002588
:104730001E461746880404D405E039462020B047B9
:104740006D1C641EF9D52846BDE8F0812DE9F041C5
:10475000044600251E469046C80301D5302700E0D8
:104760002027880404D505E041463846B0476D1C33
:10477000641EF9D52846BDE8F0810A68531C0B6019
:104780001070704770B510492A221048FBF781FD60
:104790000D4C0E4D608D6885E06AE862206B2863E1
:1047A0000D2204F1340105F13400FBF772FD94F899
:1047B000410085F8410094F8420085F84200606CA1
:1047C0006864A06CA86470BD20020020D4010020A1
:1047D000FCF77CFBFEF7B2FEFEF74CFCFEF7BEFCDE
:1047E000FEF700FDFEF72AFDFEF7DAFCFEF754FDAA
:1047F00029480021FDF7C6FE284C00224FF48061B5
:104800002046FCF7F3F8012220462021FCF7EEF8C1
:104810002148016864204863FEF726FB0820FEF764
:1048200005FB01210846FEF7BBFB1B48A438FFF738
:1048300007FA194820223221A438FFF7DFF816487A
:104840000821A438FFF7F4FA1348A438FFF7ECFA6C
:1048500011481349A438FFF7A9F911490E48491D19
:10486000A438FFF7DDF90C483221A438FFF790F99E
:10487000094803220121A438FFF7B0F90648A438FB
:10488000FFF752F904484038FDF7AAFB024804211B
:104890004030FDF7B1FCFEE7100300200014024099
:1048A00028000020000102030405060708090A0B7E
:1048B0000C0D0E0F10111213404142434445464760
:1048C00048494A4B4C4D4E4F5051525314151617F0
:1048D00018191A1B1C1D1E1F2021222324252627E0
:1048E0005455565758595A5B5C5D5E5F6061626310
:1048F0006465666700000000000000000102030418
:1049000006070809244900080000002044000000B0
:10491000AA3E000868490008440000204C07000037
:10492000BA3E00084EF001000000000014141414F8
:104930000000000000000000000000000000000077
:10494000000000000000000000000000E7E7E7E7CB
:10495000E77E7E7E7E7E00000100000010000000E9
:08496000000000000024F40037
:04000005080001F9F5
:00000001FF
